{
  "_format": "hh-sol-artifact-1",
  "contractName": "CreditCaller",
  "sourceName": "contracts/credit/CreditCaller.sol",
  "abi": [
    {
      "inputs": [],
      "stateMutability": "nonpayable",
      "type": "constructor"
    },
    {
      "anonymous": false,
      "inputs": [
        {
          "indexed": false,
          "internalType": "address",
          "name": "_depositor",
          "type": "address"
        },
        {
          "indexed": false,
          "internalType": "address",
          "name": "_collateralReward",
          "type": "address"
        },
        {
          "indexed": false,
          "internalType": "address[]",
          "name": "_vaults",
          "type": "address[]"
        },
        {
          "indexed": false,
          "internalType": "address[]",
          "name": "_vaultRewards",
          "type": "address[]"
        }
      ],
      "name": "AddStrategy",
      "type": "event"
    },
    {
      "anonymous": false,
      "inputs": [
        {
          "indexed": false,
          "internalType": "address",
          "name": "_underlying",
          "type": "address"
        },
        {
          "indexed": false,
          "internalType": "address",
          "name": "_creditManager",
          "type": "address"
        }
      ],
      "name": "AddVaultManager",
      "type": "event"
    },
    {
      "anonymous": false,
      "inputs": [
        {
          "indexed": true,
          "internalType": "address",
          "name": "_borrowedToken",
          "type": "address"
        },
        {
          "indexed": false,
          "internalType": "uint256",
          "name": "_borrowedIndex",
          "type": "uint256"
        },
        {
          "indexed": false,
          "internalType": "uint256",
          "name": "_borrowedAmountOuts",
          "type": "uint256"
        },
        {
          "indexed": false,
          "internalType": "uint256",
          "name": "_borrowedMintedAmount",
          "type": "uint256"
        }
      ],
      "name": "CalcBorrowAmount",
      "type": "event"
    },
    {
      "anonymous": false,
      "inputs": [
        {
          "indexed": false,
          "internalType": "uint8",
          "name": "version",
          "type": "uint8"
        }
      ],
      "name": "Initialized",
      "type": "event"
    },
    {
      "anonymous": false,
      "inputs": [
        {
          "indexed": true,
          "internalType": "address",
          "name": "_recipient",
          "type": "address"
        },
        {
          "indexed": false,
          "internalType": "uint256",
          "name": "_borrowedIndex",
          "type": "uint256"
        },
        {
          "indexed": false,
          "internalType": "address",
          "name": "_depositor",
          "type": "address"
        },
        {
          "indexed": false,
          "internalType": "address",
          "name": "_token",
          "type": "address"
        },
        {
          "indexed": false,
          "internalType": "uint256",
          "name": "_amountIn",
          "type": "uint256"
        },
        {
          "indexed": false,
          "internalType": "address[]",
          "name": "_borrowedTokens",
          "type": "address[]"
        },
        {
          "indexed": false,
          "internalType": "uint256[]",
          "name": "_ratios",
          "type": "uint256[]"
        },
        {
          "indexed": false,
          "internalType": "uint256",
          "name": "_timestamp",
          "type": "uint256"
        }
      ],
      "name": "LendCredit",
      "type": "event"
    },
    {
      "anonymous": false,
      "inputs": [
        {
          "indexed": false,
          "internalType": "address",
          "name": "_recipient",
          "type": "address"
        },
        {
          "indexed": false,
          "internalType": "uint256",
          "name": "_borrowedIndex",
          "type": "uint256"
        },
        {
          "indexed": false,
          "internalType": "uint256",
          "name": "_health",
          "type": "uint256"
        },
        {
          "indexed": false,
          "internalType": "uint256",
          "name": "_timestamp",
          "type": "uint256"
        }
      ],
      "name": "Liquidate",
      "type": "event"
    },
    {
      "anonymous": false,
      "inputs": [
        {
          "indexed": true,
          "internalType": "address",
          "name": "_recipient",
          "type": "address"
        },
        {
          "indexed": false,
          "internalType": "uint256",
          "name": "_borrowedIndex",
          "type": "uint256"
        },
        {
          "indexed": false,
          "internalType": "uint256",
          "name": "_amountOut",
          "type": "uint256"
        },
        {
          "indexed": false,
          "internalType": "uint256",
          "name": "_borrowedAmountOut",
          "type": "uint256"
        }
      ],
      "name": "LiquidatorDebts",
      "type": "event"
    },
    {
      "anonymous": false,
      "inputs": [
        {
          "indexed": false,
          "internalType": "address",
          "name": "_liquidator",
          "type": "address"
        },
        {
          "indexed": false,
          "internalType": "uint256",
          "name": "_fee",
          "type": "uint256"
        },
        {
          "indexed": false,
          "internalType": "uint256",
          "name": "_borrowedIndex",
          "type": "uint256"
        }
      ],
      "name": "LiquidatorFee",
      "type": "event"
    },
    {
      "anonymous": false,
      "inputs": [
        {
          "indexed": true,
          "internalType": "address",
          "name": "previousOwner",
          "type": "address"
        },
        {
          "indexed": true,
          "internalType": "address",
          "name": "newOwner",
          "type": "address"
        }
      ],
      "name": "OwnershipTransferred",
      "type": "event"
    },
    {
      "anonymous": false,
      "inputs": [
        {
          "indexed": true,
          "internalType": "address",
          "name": "_recipient",
          "type": "address"
        },
        {
          "indexed": false,
          "internalType": "uint256",
          "name": "_borrowedIndex",
          "type": "uint256"
        },
        {
          "indexed": false,
          "internalType": "address",
          "name": "_collateralToken",
          "type": "address"
        },
        {
          "indexed": false,
          "internalType": "uint256",
          "name": "_collateralAmountOut",
          "type": "uint256"
        },
        {
          "indexed": false,
          "internalType": "uint256",
          "name": "_timestamp",
          "type": "uint256"
        }
      ],
      "name": "RepayCredit",
      "type": "event"
    },
    {
      "anonymous": false,
      "inputs": [
        {
          "indexed": false,
          "internalType": "address",
          "name": "_creditTokenStaker",
          "type": "address"
        }
      ],
      "name": "SetCreditTokenStaker",
      "type": "event"
    },
    {
      "anonymous": false,
      "inputs": [
        {
          "indexed": false,
          "internalType": "address",
          "name": "_creditUser",
          "type": "address"
        }
      ],
      "name": "SetCreditUser",
      "type": "event"
    },
    {
      "inputs": [
        {
          "internalType": "address",
          "name": "_depositor",
          "type": "address"
        },
        {
          "internalType": "address",
          "name": "_collateralReward",
          "type": "address"
        },
        {
          "internalType": "address[]",
          "name": "_vaults",
          "type": "address[]"
        },
        {
          "internalType": "address[]",
          "name": "_vaultRewardDistributors",
          "type": "address[]"
        }
      ],
      "name": "addStrategy",
      "outputs": [],
      "stateMutability": "nonpayable",
      "type": "function"
    },
    {
      "inputs": [
        {
          "internalType": "address",
          "name": "_underlyingToken",
          "type": "address"
        },
        {
          "internalType": "address",
          "name": "_creditManager",
          "type": "address"
        }
      ],
      "name": "addVaultManager",
      "outputs": [],
      "stateMutability": "nonpayable",
      "type": "function"
    },
    {
      "inputs": [],
      "name": "addressProvider",
      "outputs": [
        {
          "internalType": "address",
          "name": "",
          "type": "address"
        }
      ],
      "stateMutability": "view",
      "type": "function"
    },
    {
      "inputs": [],
      "name": "allowlist",
      "outputs": [
        {
          "internalType": "address",
          "name": "",
          "type": "address"
        }
      ],
      "stateMutability": "view",
      "type": "function"
    },
    {
      "inputs": [
        {
          "internalType": "uint256",
          "name": "_collateralAmountIn",
          "type": "uint256"
        },
        {
          "internalType": "address",
          "name": "_collateralToken",
          "type": "address"
        },
        {
          "internalType": "uint256",
          "name": "_ratio",
          "type": "uint256"
        },
        {
          "internalType": "address",
          "name": "_borrowedToken",
          "type": "address"
        }
      ],
      "name": "calcBorrowAmount",
      "outputs": [
        {
          "internalType": "uint256",
          "name": "",
          "type": "uint256"
        }
      ],
      "stateMutability": "view",
      "type": "function"
    },
    {
      "inputs": [
        {
          "internalType": "address",
          "name": "_target",
          "type": "address"
        },
        {
          "internalType": "address",
          "name": "_recipient",
          "type": "address"
        }
      ],
      "name": "claimFor",
      "outputs": [],
      "stateMutability": "nonpayable",
      "type": "function"
    },
    {
      "inputs": [],
      "name": "creditTokenStaker",
      "outputs": [
        {
          "internalType": "address",
          "name": "",
          "type": "address"
        }
      ],
      "stateMutability": "view",
      "type": "function"
    },
    {
      "inputs": [],
      "name": "creditUser",
      "outputs": [
        {
          "internalType": "address",
          "name": "",
          "type": "address"
        }
      ],
      "stateMutability": "view",
      "type": "function"
    },
    {
      "inputs": [
        {
          "internalType": "address",
          "name": "_recipient",
          "type": "address"
        },
        {
          "internalType": "uint256",
          "name": "_borrowedIndex",
          "type": "uint256"
        }
      ],
      "name": "getUserCreditHealth",
      "outputs": [
        {
          "internalType": "uint256",
          "name": "",
          "type": "uint256"
        }
      ],
      "stateMutability": "view",
      "type": "function"
    },
    {
      "inputs": [
        {
          "internalType": "address",
          "name": "_addressProvider",
          "type": "address"
        },
        {
          "internalType": "address",
          "name": "_wethAddress",
          "type": "address"
        }
      ],
      "name": "initialize",
      "outputs": [],
      "stateMutability": "nonpayable",
      "type": "function"
    },
    {
      "inputs": [
        {
          "internalType": "address",
          "name": "_recipient",
          "type": "address"
        },
        {
          "internalType": "uint256",
          "name": "_borrowedIndex",
          "type": "uint256"
        }
      ],
      "name": "liquidate",
      "outputs": [],
      "stateMutability": "nonpayable",
      "type": "function"
    },
    {
      "inputs": [
        {
          "internalType": "bytes[]",
          "name": "data",
          "type": "bytes[]"
        }
      ],
      "name": "multicall",
      "outputs": [
        {
          "internalType": "bytes[]",
          "name": "results",
          "type": "bytes[]"
        }
      ],
      "stateMutability": "payable",
      "type": "function"
    },
    {
      "inputs": [
        {
          "internalType": "address",
          "name": "_depositor",
          "type": "address"
        },
        {
          "internalType": "address",
          "name": "_token",
          "type": "address"
        },
        {
          "internalType": "uint256",
          "name": "_amountIn",
          "type": "uint256"
        },
        {
          "internalType": "address[]",
          "name": "_borrowedTokens",
          "type": "address[]"
        },
        {
          "internalType": "uint256[]",
          "name": "_ratios",
          "type": "uint256[]"
        },
        {
          "internalType": "address",
          "name": "_recipient",
          "type": "address"
        }
      ],
      "name": "openLendCredit",
      "outputs": [],
      "stateMutability": "payable",
      "type": "function"
    },
    {
      "inputs": [],
      "name": "owner",
      "outputs": [
        {
          "internalType": "address",
          "name": "",
          "type": "address"
        }
      ],
      "stateMutability": "view",
      "type": "function"
    },
    {
      "inputs": [],
      "name": "renounceOwnership",
      "outputs": [],
      "stateMutability": "nonpayable",
      "type": "function"
    },
    {
      "inputs": [
        {
          "internalType": "uint256",
          "name": "_borrowedIndex",
          "type": "uint256"
        }
      ],
      "name": "repayCredit",
      "outputs": [
        {
          "internalType": "uint256",
          "name": "",
          "type": "uint256"
        }
      ],
      "stateMutability": "nonpayable",
      "type": "function"
    },
    {
      "inputs": [
        {
          "internalType": "address",
          "name": "_allowlist",
          "type": "address"
        }
      ],
      "name": "setAllowlist",
      "outputs": [],
      "stateMutability": "nonpayable",
      "type": "function"
    },
    {
      "inputs": [
        {
          "internalType": "address",
          "name": "_creditTokenStaker",
          "type": "address"
        }
      ],
      "name": "setCreditTokenStaker",
      "outputs": [],
      "stateMutability": "nonpayable",
      "type": "function"
    },
    {
      "inputs": [
        {
          "internalType": "address",
          "name": "_creditUser",
          "type": "address"
        }
      ],
      "name": "setCreditUser",
      "outputs": [],
      "stateMutability": "nonpayable",
      "type": "function"
    },
    {
      "inputs": [
        {
          "internalType": "address",
          "name": "",
          "type": "address"
        }
      ],
      "name": "strategies",
      "outputs": [
        {
          "internalType": "bool",
          "name": "listed",
          "type": "bool"
        },
        {
          "internalType": "address",
          "name": "collateralReward",
          "type": "address"
        }
      ],
      "stateMutability": "view",
      "type": "function"
    },
    {
      "inputs": [
        {
          "internalType": "address",
          "name": "newOwner",
          "type": "address"
        }
      ],
      "name": "transferOwnership",
      "outputs": [],
      "stateMutability": "nonpayable",
      "type": "function"
    },
    {
      "inputs": [
        {
          "internalType": "address",
          "name": "",
          "type": "address"
        }
      ],
      "name": "vaultManagers",
      "outputs": [
        {
          "internalType": "address",
          "name": "",
          "type": "address"
        }
      ],
      "stateMutability": "view",
      "type": "function"
    },
    {
      "inputs": [],
      "name": "wethAddress",
      "outputs": [
        {
          "internalType": "address",
          "name": "",
          "type": "address"
        }
      ],
      "stateMutability": "view",
      "type": "function"
    }
  ],
  "bytecode": "0x60806040523480156200001157600080fd5b50600054610100900460ff1615808015620000335750600054600160ff909116105b8062000063575062000050306200013d60201b62001c521760201c565b15801562000063575060005460ff166001145b620000cb5760405162461bcd60e51b815260206004820152602e60248201527f496e697469616c697a61626c653a20636f6e747261637420697320616c72656160448201526d191e481a5b9a5d1a585b1a5e995960921b606482015260840160405180910390fd5b6000805460ff191660011790558015620000ef576000805461ff0019166101001790555b801562000136576000805461ff0019169055604051600181527f7f26b83ff96e1f2b6a682f133852f6798a09c465da95921460cefb38474024989060200160405180910390a15b506200014c565b6001600160a01b03163b151590565b614705806200015c6000396000f3fe6080604052600436106101405760003560e01c8063715018a6116100b6578063bab82c221161006f578063bab82c22146103b7578063bcbaf487146103ed578063cee7f2a21461040d578063eb64b4311461042d578063f2fde38b1461044d578063f9e61cbc1461046d57600080fd5b8063715018a6146103045780638da5cb5b1461031957806394dfec781461033757806396ee46bd14610357578063ac9650d814610377578063b4ba9e111461039757600080fd5b80633878bc41116101085780633878bc411461020557806339ebf823146102255780633b79421f14610284578063485cc955146102a45780634f0e0ef3146102c457806358bf3c7f146102e457600080fd5b806305713ae514610145578063063b4ae0146101785780631a1bd479146101985780632954018c146101ad5780632b47da52146101e5575b600080fd5b34801561015157600080fd5b50610165610160366004613fa8565b61048d565b6040519081526020015b60405180910390f35b34801561018457600080fd5b50610165610193366004613fd8565b61067f565b6101ab6101a6366004613c8c565b6107b3565b005b3480156101b957600080fd5b506097546101cd906001600160a01b031681565b6040516001600160a01b03909116815260200161016f565b3480156101f157600080fd5b50609b546101cd906001600160a01b031681565b34801561021157600080fd5b506099546101cd906001600160a01b031681565b34801561023157600080fd5b50610265610240366004613b8b565b609c6020526000908152604090205460ff81169061010090046001600160a01b031682565b6040805192151583526001600160a01b0390911660208301520161016f565b34801561029057600080fd5b506101ab61029f366004613b8b565b610c0d565b3480156102b057600080fd5b506101ab6102bf366004613bc3565b610d00565b3480156102d057600080fd5b506098546101cd906001600160a01b031681565b3480156102f057600080fd5b506101ab6102ff366004613b8b565b610ff9565b34801561031057600080fd5b506101ab611023565b34801561032557600080fd5b506065546001600160a01b03166101cd565b34801561034357600080fd5b506101ab610352366004613bfb565b611037565b34801561036357600080fd5b50610165610372366004613dcb565b61129d565b61038a610385366004613eba565b611480565b60405161016f91906142a8565b3480156103a357600080fd5b506101ab6103b2366004613bc3565b611601565b3480156103c357600080fd5b506101cd6103d2366004613b8b565b609d602052600090815260409020546001600160a01b031681565b3480156103f957600080fd5b506101ab610408366004613dcb565b611692565b34801561041957600080fd5b50609a546101cd906001600160a01b031681565b34801561043957600080fd5b506101ab610448366004613b8b565b611975565b34801561045957600080fd5b506101ab610468366004613b8b565b611a5a565b34801561047957600080fd5b506101ab610488366004613bc3565b611ad3565b6000610497611c61565b60995460405163293c4ab560e01b81523360048201526000916001600160a01b03169063293c4ab59060240160206040518083038186803b1580156104db57600080fd5b505afa1580156104ef573d6000803e3d6000fd5b505050506040513d601f19601f820116820180604052508101906105139190613fc0565b90506000831161053e5760405162461bcd60e51b81526004016105359061431c565b60405180910390fd5b8083111561058e5760405162461bcd60e51b815260206004820181905260248201527f43726564697443616c6c65723a20496e646578206f7574206f662072616e67656044820152606401610535565b60995460405163297205a160e01b81526000916001600160a01b03169063297205a1906105c190339088906004016141b9565b60206040518083038186803b1580156105d957600080fd5b505afa1580156105ed573d6000803e3d6000fd5b505050506040513d601f19601f820116820180604052508101906106119190613ef9565b905080156106615760405162461bcd60e51b815260206004820181905260248201527f43726564697443616c6c65723a20416c7265616479207465726d696e617465646044820152606401610535565b61066d33856000611cbb565b9250505061067a60018055565b919050565b600080846001600160a01b031663313ce5676040518163ffffffff1660e01b815260040160206040518083038186803b1580156106bb57600080fd5b505afa1580156106cf573d6000803e3d6000fd5b505050506040513d601f19601f820116820180604052508101906106f39190614044565b60ff1690506000836001600160a01b031663313ce5676040518163ffffffff1660e01b815260040160206040518083038186803b15801561073357600080fd5b505afa158015610747573d6000803e3d6000fd5b505050506040513d601f19601f8201168201806040525081019061076b9190614044565b60ff16905061077b82600a614569565b61078682600a614569565b610792898989896125b0565b61079c9190614611565b6107a69190614506565b925050505b949350505050565b6107bb611c61565b6001600160a01b03871661081c5760405162461bcd60e51b815260206004820152602260248201527f43726564697443616c6c65723a205f746f6b656e2063616e6e6f742062652030604482015261078360f41b6064820152608401610535565b600086116108785760405162461bcd60e51b815260206004820152602360248201527f43726564697443616c6c65723a205f616d6f756e74496e2063616e6e6f74206260448201526206520360ec1b6064820152608401610535565b609b546001600160a01b031615610945576040516001600160a01b03821660248201526000906108e19060440160408051601f198184030181529190526020810180516001600160e01b0316635e10358560e11b179052609b546001600160a01b0316906125ed565b9050808060200190518101906108f79190613ef9565b6109435760405162461bcd60e51b815260206004820152601d60248201527f43726564697443616c6c65723a204e6f742077686974656c69737465640000006044820152606401610535565b505b6001600160a01b03871673eeeeeeeeeeeeeeeeeeeeeeeeeeeeeeeeeeeeeeee14156109865761097386612638565b6098546001600160a01b03169650610a9e565b6040516370a0823160e01b81523060048201526000906001600160a01b038916906370a082319060240160206040518083038186803b1580156109c857600080fd5b505afa1580156109dc573d6000803e3d6000fd5b505050506040513d601f19601f82011682018060405250810190610a009190613fc0565b9050610a176001600160a01b03891633308a6126fd565b6040516370a0823160e01b815230600482015281906001600160a01b038a16906370a082319060240160206040518083038186803b158015610a5857600080fd5b505afa158015610a6c573d6000803e3d6000fd5b505050506040513d601f19601f82011682018060405250810190610a909190613fc0565b610a9a9190614630565b9650505b610aa987898861276e565b6040516340c10f1960e01b81526000906001600160a01b038a16906340c10f1990610ada908b908b906004016141b9565b6040805180830381600087803b158015610af357600080fd5b505af1158015610b07573d6000803e3d6000fd5b505050506040513d601f19601f82011682018060405250810190610b2b9190613df6565b915050610b656040805160c0810182526000808252602082018190529181018290526060808201819052608082015260a081019190915290565b6001600160a01b03808b168252891660208083019190915260408083018a90528051888302818101840190925288815291899189918291908501908490808284376000920191909152505050506060820152604080516020808702828101820190935286825290918791879182918501908490808284376000920191909152505050506080820152610bf8818385612797565b5050610c0360018055565b5050505050505050565b610c15613189565b6001600160a01b038116610c825760405162461bcd60e51b815260206004820152602e60248201527f43726564697443616c6c65723a205f637265646974546f6b656e5374616b657260448201526d02063616e6e6f74206265203078360941b6064820152608401610535565b609a546001600160a01b031615610cab5760405162461bcd60e51b8152600401610535906143ab565b609a80546001600160a01b0319166001600160a01b0383169081179091556040519081527f5ddc134180216493bacca74e6afc7463cf79e33b6f68a8534d5885d971987455906020015b60405180910390a150565b600054610100900460ff1615808015610d205750600054600160ff909116105b80610d3a5750303b158015610d3a575060005460ff166001145b610d9d5760405162461bcd60e51b815260206004820152602e60248201527f496e697469616c697a61626c653a20636f6e747261637420697320616c72656160448201526d191e481a5b9a5d1a585b1a5e995960921b6064820152608401610535565b6000805460ff191660011790558015610dc0576000805461ff0019166101001790555b6001600160a01b038316610e2b5760405162461bcd60e51b815260206004820152602c60248201527f43726564697443616c6c65723a205f6164647265737350726f7669646572206360448201526b0616e6e6f74206265203078360a41b6064820152608401610535565b6001600160a01b038216610e925760405162461bcd60e51b815260206004820152602860248201527f43726564697443616c6c65723a205f77657468416464726573732063616e6e6f604482015267074206265203078360c41b6064820152608401610535565b6001600160a01b0383163b610f025760405162461bcd60e51b815260206004820152603060248201527f43726564697443616c6c65723a205f6164647265737350726f7669646572206960448201526f1cc81b9bdd08184818dbdb9d1c9858dd60821b6064820152608401610535565b6001600160a01b0382163b610f6e5760405162461bcd60e51b815260206004820152602c60248201527f43726564697443616c6c65723a205f7765746841646472657373206973206e6f60448201526b1d08184818dbdb9d1c9858dd60a21b6064820152608401610535565b610f766131e3565b610f7e613212565b609780546001600160a01b038086166001600160a01b03199283161790925560988054928516929091169190911790558015610ff4576000805461ff0019169055604051600181527f7f26b83ff96e1f2b6a682f133852f6798a09c465da95921460cefb38474024989060200160405180910390a15b505050565b611001613189565b609b80546001600160a01b0319166001600160a01b0392909216919091179055565b61102b613189565b611035600061323e565b565b61103f613189565b82811461108e5760405162461bcd60e51b815260206004820152601d60248201527f43726564697443616c6c65723a204c656e677468206d69736d617463680000006044820152606401610535565b6001600160a01b0386166110f35760405162461bcd60e51b815260206004820152602660248201527f43726564697443616c6c65723a205f6465706f7369746f722063616e6e6f742060448201526506265203078360d41b6064820152608401610535565b6001600160a01b03851661115f5760405162461bcd60e51b815260206004820152602d60248201527f43726564697443616c6c65723a205f636f6c6c61746572616c5265776172642060448201526c063616e6e6f742062652030783609c1b6064820152608401610535565b6001600160a01b038087166000908152609c602052604081208054928816610100026001600160a81b03199093169290921760011782555b84811015611252578383828181106111bf57634e487b7160e01b600052603260045260246000fd5b90506020020160208101906111d49190613b8b565b8260010160008888858181106111fa57634e487b7160e01b600052603260045260246000fd5b905060200201602081019061120f9190613b8b565b6001600160a01b039081168252602082019290925260400160002080546001600160a01b031916929091169190911790558061124a81614673565b915050611197565b507f9f9831a2773e6ec64ead834fd977747d56b5d92f986beab6e8b9f57258c3e00587878787878760405161128c9695949392919061416c565b60405180910390a150505050505050565b609954604051633b57535f60e11b815260009182916001600160a01b03909116906376aea6be906112d490879087906004016141b9565b60006040518083038186803b1580156112ec57600080fd5b505afa158015611300573d6000803e3d6000fd5b505050506040513d6000823e601f3d908101601f191682016040526113289190810190613d3a565b506099546040516313b5253560e31b81529195506000945084935083925082916001600160a01b0390911690639da929a89061136a908b908b906004016141b9565b60006040518083038186803b15801561138257600080fd5b505afa158015611396573d6000803e3d6000fd5b505050506040513d6000823e601f3d908101601f191682016040526113be9190810190613e23565b945050935093509350600080600090505b855181101561144e576114308782815181106113fb57634e487b7160e01b600052603260045260246000fd5b602002602001015186838151811061142357634e487b7160e01b600052603260045260246000fd5b6020026020010151613290565b61143a90836144ee565b91508061144681614673565b9150506113cf565b50826103e861145d8385614630565b6114679190614611565b6114719190614506565b96505050505050505b92915050565b6060816001600160401b038111156114a857634e487b7160e01b600052604160045260246000fd5b6040519080825280602002602001820160405280156114db57816020015b60608152602001906001900390816114c65790505b50905060005b828110156115fa576000803086868581811061150d57634e487b7160e01b600052603260045260246000fd5b905060200281019061151f9190614457565b60405161152d929190614140565b600060405180830381855af49150503d8060008114611568576040519150601f19603f3d011682016040523d82523d6000602084013e61156d565b606091505b5091509150816115b95760448151101561158657600080fd5b600481019050808060200190518101906115a09190613f19565b60405162461bcd60e51b81526004016105359190614309565b808484815181106115da57634e487b7160e01b600052603260045260246000fd5b6020026020010181905250505080806115f290614673565b9150506114e1565b5092915050565b611609611c61565b604051630f41a04d60e11b81526001600160a01b038281166004830152831690631e83409a90602401602060405180830381600087803b15801561164c57600080fd5b505af1158015611660573d6000803e3d6000fd5b505050506040513d601f19601f820116820180604052508101906116849190613fc0565b5061168e60018055565b5050565b61169a611c61565b60995460405163293c4ab560e01b81526001600160a01b038481166004830152600092169063293c4ab59060240160206040518083038186803b1580156116e057600080fd5b505afa1580156116f4573d6000803e3d6000fd5b505050506040513d601f19601f820116820180604052508101906117189190613fc0565b90506000821161173a5760405162461bcd60e51b81526004016105359061431c565b8082111561178a5760405162461bcd60e51b815260206004820181905260248201527f43726564697443616c6c65723a20496e646578206f7574206f662072616e67656044820152606401610535565b60995460405163297205a160e01b81526000916001600160a01b03169063297205a1906117bd90879087906004016141b9565b60206040518083038186803b1580156117d557600080fd5b505afa1580156117e9573d6000803e3d6000fd5b505050506040513d601f19601f8201168201806040525081019061180d9190613ef9565b609954604051630c8cc26b60e21b81529192506000916001600160a01b039091169063323309ac9061184b90889088906301e1338090600401614287565b60206040518083038186803b15801561186357600080fd5b505afa158015611877573d6000803e3d6000fd5b505050506040513d601f19601f8201168201806040525081019061189b9190613ef9565b905081156118eb5760405162461bcd60e51b815260206004820181905260248201527f43726564697443616c6c65723a20416c7265616479207465726d696e617465646044820152606401610535565b60006118f7868661129d565b90506064811115806119065750815b1561196857611916868633611cbb565b50604080516001600160a01b0388168152602081018790529081018290524260608201527f158ba9ab7bbbd08eeffa4753bad41f4d450e24831d293427308badf3eadd8c769060800160405180910390a15b5050505061168e60018055565b61197d613189565b6001600160a01b0381166119e35760405162461bcd60e51b815260206004820152602760248201527f43726564697443616c6c65723a205f637265646974557365722063616e6e6f746044820152660206265203078360cc1b6064820152608401610535565b6099546001600160a01b031615611a0c5760405162461bcd60e51b8152600401610535906143ab565b609980546001600160a01b0319166001600160a01b0383169081179091556040519081527fd3b0c084624468782ad441a5f61a001f3e1889922b920a62d00bc26a4cc5139b90602001610cf5565b611a62613189565b6001600160a01b038116611ac75760405162461bcd60e51b815260206004820152602660248201527f4f776e61626c653a206e6577206f776e657220697320746865207a65726f206160448201526564647265737360d01b6064820152608401610535565b611ad08161323e565b50565b611adb613189565b6001600160a01b038216611b465760405162461bcd60e51b815260206004820152602c60248201527f43726564697443616c6c65723a205f756e6465726c79696e67546f6b656e206360448201526b0616e6e6f74206265203078360a41b6064820152608401610535565b6001600160a01b038116611baf5760405162461bcd60e51b815260206004820152602a60248201527f43726564697443616c6c65723a205f6372656469744d616e616765722063616e60448201526906e6f74206265203078360b41b6064820152608401610535565b6001600160a01b038281166000908152609d60205260409020541615611be75760405162461bcd60e51b8152600401610535906143ab565b6001600160a01b038281166000818152609d602090815260409182902080546001600160a01b031916948616948517905581519283528201929092527fd9f2ca1483d9c69f3c80127fdff0235241ee098aa0a579fea1c6f367477f21bf910160405180910390a15050565b6001600160a01b03163b151590565b60026001541415611cb45760405162461bcd60e51b815260206004820152601f60248201527f5265656e7472616e637947756172643a207265656e7472616e742063616c6c006044820152606401610535565b6002600155565b6040805160c0810182526000808252602082018190529181018290526060808201819052608082015260a08101829052611d1d6040518060a0016040528060608152602001606081526020016000815260200160608152602001600081525090565b609954604051633b57535f60e11b81526001600160a01b03909116906376aea6be90611d4f90899089906004016141b9565b60006040518083038186803b158015611d6757600080fd5b505afa158015611d7b573d6000803e3d6000fd5b505050506040513d6000823e601f3d908101601f19168201604052611da39190810190613d3a565b506060860152506001600160a01b03908116602085015290811683526099546040516313b5253560e31b81526000929190911690639da929a890611ded908a908a906004016141b9565b60006040518083038186803b158015611e0557600080fd5b505afa158015611e19573d6000803e3d6000fd5b505050506040513d6000823e601f3d908101601f19168201604052611e419190810190613e23565b606087019190915260408087019290925260208087019390935292855285516001600160a01b03166000908152609c90925281209192505b83515181101561231157600080611eeb876000015188606001518581518110611eb257634e487b7160e01b600052603260045260246000fd5b602002602001015188602001518681518110611ede57634e487b7160e01b600052603260045260246000fd5b60200260200101516133a4565b90925090506001600160a01b038916611f895785602001518381518110611f2257634e487b7160e01b600052603260045260246000fd5b6020026020010151811015611f845760405162461bcd60e51b815260206004820152602260248201527f43726564697443616c6c65723a20496e73756666696369656e742062616c616e604482015261636560f01b6064820152608401610535565b61203e565b85602001518381518110611fad57634e487b7160e01b600052603260045260246000fd5b602002602001015181101561203e578a6001600160a01b03167febae133082f6d724a340baf11a70f41cffe1a0642cdb2443886065c73518a54f8b838960200151878151811061200d57634e487b7160e01b600052603260045260246000fd5b6020026020010151604051612035939291909283526020830191909152604082015260600190565b60405180910390a25b6120488286614630565b94506120d68760600151848151811061207157634e487b7160e01b600052603260045260246000fd5b60200260200101518760000151858151811061209d57634e487b7160e01b600052603260045260246000fd5b6020026020010151886020015186815181106120c957634e487b7160e01b600052603260045260246000fd5b602002602001015161276e565b85518051849081106120f857634e487b7160e01b600052603260045260246000fd5b60200260200101516001600160a01b03166322867d788c8860200151868151811061213357634e487b7160e01b600052603260045260246000fd5b60200260200101516040518363ffffffff1660e01b81526004016121589291906141b9565b600060405180830381600087803b15801561217257600080fd5b505af1158015612186573d6000803e3d6000fd5b505050506000846001016000886000015186815181106121b657634e487b7160e01b600052603260045260246000fd5b60200260200101516001600160a01b031663fbfa77cf6040518163ffffffff1660e01b815260040160206040518083038186803b1580156121f657600080fd5b505afa15801561220a573d6000803e3d6000fd5b505050506040513d601f19601f8201168201806040525081019061222e9190613ba7565b6001600160a01b039081168252602082019290925260400160002054609a5460608a01518051928416945092169163f3fef3a3918491908890811061228357634e487b7160e01b600052603260045260246000fd5b60200260200101516040518363ffffffff1660e01b81526004016122a89291906141b9565b602060405180830381600087803b1580156122c257600080fd5b505af11580156122d6573d6000803e3d6000fd5b505050506040513d601f19601f820116820180604052508101906122fa9190613ef9565b50505050808061230990614673565b915050611e79565b5083516020850151604051635ae2fb3960e11b81526000926001600160a01b03169163b5c5f6729161234a919087908690600401614287565b602060405180830381600087803b15801561236457600080fd5b505af1158015612378573d6000803e3d6000fd5b505050506040513d601f19601f8201168201806040525081019061239c9190613fc0565b90506001600160a01b0387161561242c5760006103e86123bd600a84614611565b6123c79190614506565b90506123d38183614630565b60208701519092506123ef906001600160a01b03168983613448565b7fc91f1ccce4d1260fda05eb5488e5a47589559a7d1ae9e092928b618598c6343888828b60405161242293929190614287565b60405180910390a1505b6020850151612445906001600160a01b03168a83613448565b609a5482546040868101519051639f1d926760e01b81526001600160a01b03610100909304831660048201528c831660248201526044810191909152911690639f1d926790606401602060405180830381600087803b1580156124a757600080fd5b505af11580156124bb573d6000803e3d6000fd5b505050506040513d601f19601f820116820180604052508101906124df9190613ef9565b5060995460405163a24835d160e01b81526001600160a01b039091169063a24835d190612512908c908c906004016141b9565b600060405180830381600087803b15801561252c57600080fd5b505af1158015612540573d6000803e3d6000fd5b505050602080870151604080518c81526001600160a01b039283169381019390935282018490524260608301528b1691507f13ca5e6d15abbfd2bec56b18459e5440e662f7c2f553335b382cac69d2a5c1e99060800160405180910390a298975050505050505050565b60018055565b6000806125bc85613467565b905060006125c984613467565b9050606481866125d9858b614611565b6125e39190614611565b61079c9190614506565b6060612631838360006040518060400160405280601e81526020017f416464726573733a206c6f772d6c6576656c2063616c6c206661696c6564000081525061356d565b9392505050565b8034146126915760405162461bcd60e51b815260206004820152602160248201527f43726564697443616c6c65723a2045544820616d6f756e74206d69736d6174636044820152600d60fb1b6064820152608401610535565b609860009054906101000a90046001600160a01b03166001600160a01b031663d0e30db0826040518263ffffffff1660e01b81526004016000604051808303818588803b1580156126e157600080fd5b505af11580156126f5573d6000803e3d6000fd5b505050505050565b6040516001600160a01b03808516602483015283166044820152606481018290526127689085906323b872dd60e01b906084015b60408051601f198184030181529190526020810180516001600160e01b03166001600160e01b03199093169290921790915261363d565b50505050565b6127836001600160a01b03841683600061370f565b610ff46001600160a01b038416838361370f565b6127a48360800151613822565b82516001600160a01b03166000908152609c60205260409020805460ff166128185760405162461bcd60e51b815260206004820152602160248201527f43726564697443616c6c65723a204d69736d61746368656420737472617465676044820152607960f81b6064820152608401610535565b836080015151846060015151146128715760405162461bcd60e51b815260206004820152601d60248201527f43726564697443616c6c65723a204c656e677468206d69736d617463680000006044820152606401610535565b6099546040516376eeac5560e01b81526001600160a01b03848116600483015260009216906376eeac5590602401602060405180830381600087803b1580156128b957600080fd5b505af11580156128cd573d6000803e3d6000fd5b505050506040513d601f19601f820116820180604052508101906128f19190613fc0565b609954865160208801516040808a015160608b015160808c01519251633b6e9d5160e11b81529697506001600160a01b03909516956376dd3aa295612944958b958a9591949093909291906004016141d2565b600060405180830381600087803b15801561295e57600080fd5b505af1158015612972573d6000803e3d6000fd5b5050505060008560600151516001600160401b038111156129a357634e487b7160e01b600052604160045260246000fd5b6040519080825280602002602001820160405280156129cc578160200160208202803683370190505b50905060008660600151516001600160401b038111156129fc57634e487b7160e01b600052604160045260246000fd5b604051908082528060200260200182016040528015612a25578160200160208202803683370190505b50905060008760600151516001600160401b03811115612a5557634e487b7160e01b600052604160045260246000fd5b604051908082528060200260200182016040528015612a7e578160200160208202803683370190505b50905060005b88606001515181101561301c57612afb89604001518a602001518b608001518481518110612ac257634e487b7160e01b600052603260045260246000fd5b60200260200101518c606001518581518110612aee57634e487b7160e01b600052603260045260246000fd5b602002602001015161067f565b848281518110612b1b57634e487b7160e01b600052603260045260246000fd5b602002602001018181525050609d60008a606001518381518110612b4f57634e487b7160e01b600052603260045260246000fd5b60200260200101516001600160a01b03166001600160a01b0316815260200190815260200160002060009054906101000a90046001600160a01b0316828281518110612bab57634e487b7160e01b600052603260045260246000fd5b60200260200101906001600160a01b031690816001600160a01b031681525050612c1f89606001518281518110612bf257634e487b7160e01b600052603260045260246000fd5b60200260200101518a600001518684815181106120c957634e487b7160e01b600052603260045260246000fd5b818181518110612c3f57634e487b7160e01b600052603260045260246000fd5b60200260200101516001600160a01b0316634b8a352988868481518110612c7657634e487b7160e01b600052603260045260246000fd5b60200260200101516040518363ffffffff1660e01b8152600401612c9b9291906141b9565b600060405180830381600087803b158015612cb557600080fd5b505af1158015612cc9573d6000803e3d6000fd5b5050505088600001516001600160a01b03166340c10f198a606001518381518110612d0457634e487b7160e01b600052603260045260246000fd5b6020026020010151868481518110612d2c57634e487b7160e01b600052603260045260246000fd5b60200260200101516040518363ffffffff1660e01b8152600401612d519291906141b9565b6040805180830381600087803b158015612d6a57600080fd5b505af1158015612d7e573d6000803e3d6000fd5b505050506040513d601f19601f82011682018060405250810190612da29190613df6565b9050838281518110612dc457634e487b7160e01b600052603260045260246000fd5b6020026020010181815250506000866001016000848481518110612df857634e487b7160e01b600052603260045260246000fd5b60200260200101516001600160a01b031663fbfa77cf6040518163ffffffff1660e01b815260040160206040518083038186803b158015612e3857600080fd5b505afa158015612e4c573d6000803e3d6000fd5b505050506040513d601f19601f82011682018060405250810190612e709190613ba7565b6001600160a01b039081168252602082019290925260400160002054609a54865191831693509091169063adc9772e908390879086908110612ec257634e487b7160e01b600052603260045260246000fd5b60200260200101516040518363ffffffff1660e01b8152600401612ee79291906141b9565b602060405180830381600087803b158015612f0157600080fd5b505af1158015612f15573d6000803e3d6000fd5b505050506040513d601f19601f82011682018060405250810190612f399190613ef9565b5089606001518281518110612f5e57634e487b7160e01b600052603260045260246000fd5b60200260200101516001600160a01b03167f785850b1d09d3df0dfa6089adb7a5020a74e07321cfb2a5434d964d7049ef30987878581518110612fb157634e487b7160e01b600052603260045260246000fd5b6020026020010151878681518110612fd957634e487b7160e01b600052603260045260246000fd5b6020026020010151604051613001939291909283526020830191909152604082015260600190565b60405180910390a2508061301481614673565b915050612a84565b50609a5485546040516316eaab3d60e11b81526001600160a01b03610100909204821660048201528882166024820152604481018a9052911690632dd5567a90606401602060405180830381600087803b15801561307957600080fd5b505af115801561308d573d6000803e3d6000fd5b505050506040513d601f19601f820116820180604052508101906130b19190613ef9565b506099546040516375cae1f360e11b81526001600160a01b039091169063eb95c3e6906130ec9089908890869089908e908a90600401614234565b600060405180830381600087803b15801561310657600080fd5b505af115801561311a573d6000803e3d6000fd5b50505050856001600160a01b03167fc3072ccb0350ecbc02e00527b1e329b323617c4d08d31486605d10fe7fce75be858a600001518b602001518c604001518d606001518e608001514260405161317797969594939291906143f7565b60405180910390a25050505050505050565b6065546001600160a01b031633146110355760405162461bcd60e51b815260206004820181905260248201527f4f776e61626c653a2063616c6c6572206973206e6f7420746865206f776e65726044820152606401610535565b600054610100900460ff1661320a5760405162461bcd60e51b815260040161053590614360565b611035613997565b600054610100900460ff166132395760405162461bcd60e51b815260040161053590614360565b611035335b606580546001600160a01b038381166001600160a01b0319831681179093556040519116919082907f8be0079c531659141344cd1fd0a4f28419497f9722a3daafe3b4186f6b6457e090600090a35050565b600080609760009054906101000a90046001600160a01b03166001600160a01b0316638c8320b56040518163ffffffff1660e01b815260040160206040518083038186803b1580156132e157600080fd5b505afa1580156132f5573d6000803e3d6000fd5b505050506040513d601f19601f820116820180604052508101906133199190613ba7565b90506000816001600160a01b0316636a610b0786866040518363ffffffff1660e01b815260040161334b9291906141b9565b604080518083038186803b15801561336257600080fd5b505afa158015613376573d6000803e3d6000fd5b505050506040513d601f19601f8201168201806040525081019061339a9190614021565b5095945050505050565b60008060006133b38585613290565b90506000866001600160a01b031663b5c5f672878460006040518463ffffffff1660e01b81526004016133e893929190614287565b602060405180830381600087803b15801561340257600080fd5b505af1158015613416573d6000803e3d6000fd5b505050506040513d601f19601f8201168201806040525081019061343a9190613fc0565b919791965090945050505050565b610ff48363a9059cbb60e01b84846040516024016127319291906141b9565b600080609760009054906101000a90046001600160a01b03166001600160a01b0316638c8320b56040518163ffffffff1660e01b815260040160206040518083038186803b1580156134b857600080fd5b505afa1580156134cc573d6000803e3d6000fd5b505050506040513d601f19601f820116820180604052508101906134f09190613ba7565b604051630681320d60e51b81526001600160a01b0385811660048301529192509082169063d02641a09060240160206040518083038186803b15801561353557600080fd5b505afa158015613549573d6000803e3d6000fd5b505050506040513d601f19601f820116820180604052508101906126319190613fc0565b6060824710156135ce5760405162461bcd60e51b815260206004820152602660248201527f416464726573733a20696e73756666696369656e742062616c616e636520666f6044820152651c8818d85b1b60d21b6064820152608401610535565b600080866001600160a01b031685876040516135ea9190614150565b60006040518083038185875af1925050503d8060008114613627576040519150601f19603f3d011682016040523d82523d6000602084013e61362c565b606091505b50915091506107a6878383876139be565b6000613692826040518060400160405280602081526020017f5361666545524332303a206c6f772d6c6576656c2063616c6c206661696c6564815250856001600160a01b0316613a349092919063ffffffff16565b805190915015610ff457808060200190518101906136b09190613ef9565b610ff45760405162461bcd60e51b815260206004820152602a60248201527f5361666545524332303a204552433230206f7065726174696f6e20646964206e6044820152691bdd081cdd58d8d9595960b21b6064820152608401610535565b8015806137985750604051636eb1769f60e11b81523060048201526001600160a01b03838116602483015284169063dd62ed3e9060440160206040518083038186803b15801561375e57600080fd5b505afa158015613772573d6000803e3d6000fd5b505050506040513d601f19601f820116820180604052508101906137969190613fc0565b155b6138035760405162461bcd60e51b815260206004820152603660248201527f5361666545524332303a20617070726f76652066726f6d206e6f6e2d7a65726f60448201527520746f206e6f6e2d7a65726f20616c6c6f77616e636560501b6064820152608401610535565b610ff48363095ea7b360e01b84846040516024016127319291906141b9565b60008151116138815760405162461bcd60e51b815260206004820152602560248201527f43726564697443616c6c65723a205f726174696f732063616e6e6f7420626520604482015264656d70747960d81b6064820152608401610535565b6000805b82518110156138d5578281815181106138ae57634e487b7160e01b600052603260045260246000fd5b6020026020010151826138c191906144ee565b9150806138cd81614673565b915050613885565b506103e88111156139375760405162461bcd60e51b815260206004820152602660248201527f43726564697443616c6c65723a204d41585f524154494f206c696d697420657860448201526518d95959195960d21b6064820152608401610535565b606481101561168e5760405162461bcd60e51b815260206004820152602660248201527f43726564697443616c6c65723a204d494e5f524154494f206c696d697420657860448201526518d95959195960d21b6064820152608401610535565b600054610100900460ff166125aa5760405162461bcd60e51b815260040161053590614360565b60608315613a2a578251613a23576001600160a01b0385163b613a235760405162461bcd60e51b815260206004820152601d60248201527f416464726573733a2063616c6c20746f206e6f6e2d636f6e74726163740000006044820152606401610535565b50816107ab565b6107ab8383613a43565b60606107ab848460008561356d565b815115613a535781518083602001fd5b8060405162461bcd60e51b81526004016105359190614309565b60008083601f840112613a7e578182fd5b5081356001600160401b03811115613a94578182fd5b6020830191508360208260051b8501011115613aaf57600080fd5b9250929050565b600082601f830112613ac6578081fd5b81516020613adb613ad6836144cb565b61449b565b80838252828201915082860187848660051b8901011115613afa578586fd5b855b85811015613b21578151613b0f816146ba565b84529284019290840190600101613afc565b5090979650505050505050565b600082601f830112613b3e578081fd5b81516020613b4e613ad6836144cb565b80838252828201915082860187848660051b8901011115613b6d578586fd5b855b85811015613b2157815184529284019290840190600101613b6f565b600060208284031215613b9c578081fd5b8135612631816146ba565b600060208284031215613bb8578081fd5b8151612631816146ba565b60008060408385031215613bd5578081fd5b8235613be0816146ba565b91506020830135613bf0816146ba565b809150509250929050565b60008060008060008060808789031215613c13578182fd5b8635613c1e816146ba565b95506020870135613c2e816146ba565b945060408701356001600160401b0380821115613c49578384fd5b613c558a838b01613a6d565b90965094506060890135915080821115613c6d578384fd5b50613c7a89828a01613a6d565b979a9699509497509295939492505050565b60008060008060008060008060c0898b031215613ca7578182fd5b8835613cb2816146ba565b97506020890135613cc2816146ba565b96506040890135955060608901356001600160401b0380821115613ce4578384fd5b613cf08c838d01613a6d565b909750955060808b0135915080821115613d08578384fd5b50613d158b828c01613a6d565b90945092505060a0890135613d29816146ba565b809150509295985092959890939650565b600080600080600060a08688031215613d51578081fd5b8551613d5c816146ba565b6020870151909550613d6d816146ba565b6040870151606088015191955093506001600160401b0380821115613d90578283fd5b613d9c89838a01613ab6565b93506080880151915080821115613db1578283fd5b50613dbe88828901613b2e565b9150509295509295909350565b60008060408385031215613ddd578182fd5b8235613de8816146ba565b946020939093013593505050565b60008060408385031215613e08578182fd5b8251613e13816146ba565b6020939093015192949293505050565b600080600080600060a08688031215613e3a578283fd5b85516001600160401b0380821115613e50578485fd5b613e5c89838a01613ab6565b96506020880151915080821115613e71578485fd5b613e7d89838a01613b2e565b9550604088015194506060880151915080821115613e99578283fd5b50613ea688828901613b2e565b925050608086015190509295509295909350565b60008060208385031215613ecc578182fd5b82356001600160401b03811115613ee1578283fd5b613eed85828601613a6d565b90969095509350505050565b600060208284031215613f0a578081fd5b81518015158114612631578182fd5b600060208284031215613f2a578081fd5b81516001600160401b0380821115613f40578283fd5b818401915084601f830112613f53578283fd5b815181811115613f6557613f656146a4565b613f78601f8201601f191660200161449b565b9150808252856020828501011115613f8e578384fd5b613f9f816020840160208601614647565b50949350505050565b600060208284031215613fb9578081fd5b5035919050565b600060208284031215613fd1578081fd5b5051919050565b60008060008060808587031215613fed578182fd5b843593506020850135613fff816146ba565b9250604085013591506060850135614016816146ba565b939692955090935050565b60008060408385031215614033578182fd5b505080516020909101519092909150565b600060208284031215614055578081fd5b815160ff81168114612631578182fd5b81835260006020808501945082825b858110156140a2578135614087816146ba565b6001600160a01b031687529582019590820190600101614074565b509495945050505050565b6000815180845260208085019450808401835b838110156140a25781516001600160a01b0316875295820195908201906001016140c0565b6000815180845260208085019450808401835b838110156140a2578151875295820195908201906001016140f8565b6000815180845261412c816020860160208601614647565b601f01601f19169290920160200192915050565b8183823760009101908152919050565b60008251614162818460208701614647565b9190910192915050565b6001600160a01b038781168252861660208201526080604082018190526000906141999083018688614065565b82810360608401526141ac818587614065565b9998505050505050505050565b6001600160a01b03929092168252602082015260400190565b6001600160a01b038881168252602082018890528681166040830152851660608201526080810184905260e060a08201819052600090614214908301856140ad565b82810360c084015261422681856140e5565b9a9950505050505050505050565b60018060a01b038716815285602082015260c06040820152600061425b60c08301876140ad565b828103606084015261426d81876140e5565b905084608084015282810360a08401526141ac81856140e5565b6001600160a01b039390931683526020830191909152604082015260600190565b6000602080830181845280855180835260408601915060408160051b8701019250838701855b828110156142fc57603f198886030184526142ea858351614114565b945092850192908501906001016142ce565b5092979650505050505050565b6020815260006126316020830184614114565b60208082526024908201527f43726564697443616c6c65723a204d696e696d756d206c696d697420657863656040820152631959195960e21b606082015260800190565b6020808252602b908201527f496e697469616c697a61626c653a20636f6e7472616374206973206e6f74206960408201526a6e697469616c697a696e6760a81b606082015260800190565b6020808252602c908201527f43726564697443616c6c65723a2043616e6e6f742072756e207468697320667560408201526b6e6374696f6e20747769636560a01b606082015260800190565b8781526001600160a01b038781166020830152861660408201526060810185905260e060808201819052600090614430908301866140ad565b82810360a084015261444281866140e5565b9150508260c083015298975050505050505050565b6000808335601e1984360301811261446d578283fd5b8301803591506001600160401b03821115614486578283fd5b602001915036819003821315613aaf57600080fd5b604051601f8201601f191681016001600160401b03811182821017156144c3576144c36146a4565b604052919050565b60006001600160401b038211156144e4576144e46146a4565b5060051b60200190565b600082198211156145015761450161468e565b500190565b60008261452157634e487b7160e01b81526012600452602481fd5b500490565b600181815b808511156145615781600019048211156145475761454761468e565b8085161561455457918102915b93841c939080029061452b565b509250929050565b6000612631838360008261457f5750600161147a565b8161458c5750600061147a565b81600181146145a257600281146145ac576145c8565b600191505061147a565b60ff8411156145bd576145bd61468e565b50506001821b61147a565b5060208310610133831016604e8410600b84101617156145eb575081810a61147a565b6145f58383614526565b80600019048211156146095761460961468e565b029392505050565b600081600019048311821515161561462b5761462b61468e565b500290565b6000828210156146425761464261468e565b500390565b60005b8381101561466257818101518382015260200161464a565b838111156127685750506000910152565b60006000198214156146875761468761468e565b5060010190565b634e487b7160e01b600052601160045260246000fd5b634e487b7160e01b600052604160045260246000fd5b6001600160a01b0381168114611ad057600080fdfea2646970667358221220def92444c1429e1dbc69a3e20fca330fca5135a43e2a1a8041dc530fa99e52cf64736f6c63430008040033",
  "linkReferences": {},
  "deployedLinkReferences": {}
}