{
  "_format": "hh-sol-artifact-1",
  "contractName": "CreditUser",
  "sourceName": "contracts/credit/CreditUser.sol",
  "abi": [
    {
      "inputs": [],
      "stateMutability": "nonpayable",
      "type": "constructor"
    },
    {
      "anonymous": false,
      "inputs": [
        {
          "indexed": true,
          "internalType": "address",
          "name": "_recipient",
          "type": "address"
        },
        {
          "indexed": false,
          "internalType": "uint256",
          "name": "_borrowedIndex",
          "type": "uint256"
        },
        {
          "indexed": false,
          "internalType": "address[]",
          "name": "_creditManagers",
          "type": "address[]"
        },
        {
          "indexed": false,
          "internalType": "uint256[]",
          "name": "_borrowedAmountOuts",
          "type": "uint256[]"
        },
        {
          "indexed": false,
          "internalType": "uint256",
          "name": "_collateralMintedAmount",
          "type": "uint256"
        },
        {
          "indexed": false,
          "internalType": "uint256[]",
          "name": "_borrowedMintedAmount",
          "type": "uint256[]"
        },
        {
          "indexed": false,
          "internalType": "uint256",
          "name": "_borrowedAt",
          "type": "uint256"
        }
      ],
      "name": "CreateUserBorrowed",
      "type": "event"
    },
    {
      "anonymous": false,
      "inputs": [
        {
          "indexed": true,
          "internalType": "address",
          "name": "_recipient",
          "type": "address"
        },
        {
          "indexed": false,
          "internalType": "uint256",
          "name": "_borrowedIndex",
          "type": "uint256"
        },
        {
          "indexed": false,
          "internalType": "address",
          "name": "_depositor",
          "type": "address"
        },
        {
          "indexed": false,
          "internalType": "address",
          "name": "_token",
          "type": "address"
        },
        {
          "indexed": false,
          "internalType": "uint256",
          "name": "_amountIn",
          "type": "uint256"
        },
        {
          "indexed": false,
          "internalType": "address[]",
          "name": "_borrowedTokens",
          "type": "address[]"
        },
        {
          "indexed": false,
          "internalType": "uint256[]",
          "name": "_ratios",
          "type": "uint256[]"
        }
      ],
      "name": "CreateUserLendCredit",
      "type": "event"
    },
    {
      "anonymous": false,
      "inputs": [
        {
          "indexed": true,
          "internalType": "address",
          "name": "_recipient",
          "type": "address"
        },
        {
          "indexed": false,
          "internalType": "uint256",
          "name": "_borrowedIndex",
          "type": "uint256"
        }
      ],
      "name": "Destroy",
      "type": "event"
    },
    {
      "anonymous": false,
      "inputs": [
        {
          "indexed": false,
          "internalType": "uint8",
          "name": "version",
          "type": "uint8"
        }
      ],
      "name": "Initialized",
      "type": "event"
    },
    {
      "inputs": [
        {
          "internalType": "address",
          "name": "_recipient",
          "type": "address"
        }
      ],
      "name": "accrueSnapshot",
      "outputs": [
        {
          "internalType": "uint256",
          "name": "",
          "type": "uint256"
        }
      ],
      "stateMutability": "nonpayable",
      "type": "function"
    },
    {
      "inputs": [],
      "name": "caller",
      "outputs": [
        {
          "internalType": "address",
          "name": "",
          "type": "address"
        }
      ],
      "stateMutability": "view",
      "type": "function"
    },
    {
      "inputs": [
        {
          "internalType": "address",
          "name": "_recipient",
          "type": "address"
        },
        {
          "internalType": "uint256",
          "name": "_borrowedIndex",
          "type": "uint256"
        },
        {
          "internalType": "address[]",
          "name": "_creditManagers",
          "type": "address[]"
        },
        {
          "internalType": "uint256[]",
          "name": "_borrowedAmountOuts",
          "type": "uint256[]"
        },
        {
          "internalType": "uint256",
          "name": "_collateralMintedAmount",
          "type": "uint256"
        },
        {
          "internalType": "uint256[]",
          "name": "_borrowedMintedAmount",
          "type": "uint256[]"
        }
      ],
      "name": "createUserBorrowed",
      "outputs": [],
      "stateMutability": "nonpayable",
      "type": "function"
    },
    {
      "inputs": [
        {
          "internalType": "address",
          "name": "_recipient",
          "type": "address"
        },
        {
          "internalType": "uint256",
          "name": "_borrowedIndex",
          "type": "uint256"
        },
        {
          "internalType": "address",
          "name": "_depositor",
          "type": "address"
        },
        {
          "internalType": "address",
          "name": "_token",
          "type": "address"
        },
        {
          "internalType": "uint256",
          "name": "_amountIn",
          "type": "uint256"
        },
        {
          "internalType": "address[]",
          "name": "_borrowedTokens",
          "type": "address[]"
        },
        {
          "internalType": "uint256[]",
          "name": "_ratios",
          "type": "uint256[]"
        }
      ],
      "name": "createUserLendCredit",
      "outputs": [],
      "stateMutability": "nonpayable",
      "type": "function"
    },
    {
      "inputs": [
        {
          "internalType": "address",
          "name": "_recipient",
          "type": "address"
        },
        {
          "internalType": "uint256",
          "name": "_borrowedIndex",
          "type": "uint256"
        }
      ],
      "name": "destroy",
      "outputs": [],
      "stateMutability": "nonpayable",
      "type": "function"
    },
    {
      "inputs": [
        {
          "internalType": "uint256",
          "name": "_borrowedIndex",
          "type": "uint256"
        }
      ],
      "name": "getLendCreditUsers",
      "outputs": [
        {
          "internalType": "address",
          "name": "",
          "type": "address"
        }
      ],
      "stateMutability": "view",
      "type": "function"
    },
    {
      "inputs": [
        {
          "internalType": "address",
          "name": "_recipient",
          "type": "address"
        },
        {
          "internalType": "uint256",
          "name": "_borrowedIndex",
          "type": "uint256"
        }
      ],
      "name": "getUserBorrowed",
      "outputs": [
        {
          "internalType": "address[]",
          "name": "creditManagers",
          "type": "address[]"
        },
        {
          "internalType": "uint256[]",
          "name": "borrowedAmountOuts",
          "type": "uint256[]"
        },
        {
          "internalType": "uint256",
          "name": "collateralMintedAmount",
          "type": "uint256"
        },
        {
          "internalType": "uint256[]",
          "name": "borrowedMintedAmount",
          "type": "uint256[]"
        },
        {
          "internalType": "uint256",
          "name": "mintedAmount",
          "type": "uint256"
        }
      ],
      "stateMutability": "view",
      "type": "function"
    },
    {
      "inputs": [
        {
          "internalType": "address",
          "name": "_recipient",
          "type": "address"
        }
      ],
      "name": "getUserCounts",
      "outputs": [
        {
          "internalType": "uint256",
          "name": "",
          "type": "uint256"
        }
      ],
      "stateMutability": "view",
      "type": "function"
    },
    {
      "inputs": [
        {
          "internalType": "address",
          "name": "_recipient",
          "type": "address"
        },
        {
          "internalType": "uint256",
          "name": "_borrowedIndex",
          "type": "uint256"
        }
      ],
      "name": "getUserLendCredit",
      "outputs": [
        {
          "internalType": "address",
          "name": "depositor",
          "type": "address"
        },
        {
          "internalType": "address",
          "name": "token",
          "type": "address"
        },
        {
          "internalType": "uint256",
          "name": "amountIn",
          "type": "uint256"
        },
        {
          "internalType": "address[]",
          "name": "borrowedTokens",
          "type": "address[]"
        },
        {
          "internalType": "uint256[]",
          "name": "ratios",
          "type": "uint256[]"
        }
      ],
      "stateMutability": "view",
      "type": "function"
    },
    {
      "inputs": [
        {
          "internalType": "address",
          "name": "_caller",
          "type": "address"
        }
      ],
      "name": "initialize",
      "outputs": [],
      "stateMutability": "nonpayable",
      "type": "function"
    },
    {
      "inputs": [
        {
          "internalType": "address",
          "name": "_recipient",
          "type": "address"
        },
        {
          "internalType": "uint256",
          "name": "_borrowedIndex",
          "type": "uint256"
        }
      ],
      "name": "isTerminated",
      "outputs": [
        {
          "internalType": "bool",
          "name": "",
          "type": "bool"
        }
      ],
      "stateMutability": "view",
      "type": "function"
    },
    {
      "inputs": [
        {
          "internalType": "address",
          "name": "_recipient",
          "type": "address"
        },
        {
          "internalType": "uint256",
          "name": "_borrowedIndex",
          "type": "uint256"
        },
        {
          "internalType": "uint256",
          "name": "_duration",
          "type": "uint256"
        }
      ],
      "name": "isTimeout",
      "outputs": [
        {
          "internalType": "bool",
          "name": "",
          "type": "bool"
        }
      ],
      "stateMutability": "view",
      "type": "function"
    },
    {
      "inputs": [],
      "name": "lendCreditIndex",
      "outputs": [
        {
          "internalType": "uint256",
          "name": "",
          "type": "uint256"
        }
      ],
      "stateMutability": "view",
      "type": "function"
    }
  ],
  "bytecode": "0x608060405234801561001057600080fd5b50600054610100900460ff16158080156100315750600054600160ff909116105b8061005c575061004a3061013260201b610b821760201c565b15801561005c575060005460ff166001145b6100c35760405162461bcd60e51b815260206004820152602e60248201527f496e697469616c697a61626c653a20636f6e747261637420697320616c72656160448201526d191e481a5b9a5d1a585b1a5e995960921b606482015260840160405180910390fd5b6000805460ff1916600117905580156100e6576000805461ff0019166101001790555b801561012c576000805461ff0019169055604051600181527f7f26b83ff96e1f2b6a682f133852f6798a09c465da95921460cefb38474024989060200160405180910390a15b50610141565b6001600160a01b03163b151590565b611249806101506000396000f3fe608060405234801561001057600080fd5b50600436106100cf5760003560e01c8063774fbdf21161008c578063c2f6338311610066578063c2f63383146101fb578063c4d66de81461023c578063eb95c3e61461024f578063fc9c8d391461026257600080fd5b8063774fbdf2146101bb5780639da929a8146101c4578063a24835d1146101e857600080fd5b8063293c4ab5146100d4578063297205a114610110578063323309ac1461015c57806376aea6be1461016f57806376dd3aa21461019357806376eeac55146101a8575b600080fd5b6100fd6100e2366004610d05565b6001600160a01b031660009081526035602052604090205490565b6040519081526020015b60405180910390f35b61014c61011e366004610d26565b6001600160a01b03919091166000908152603760209081526040808320938352929052206005015460ff1690565b6040519015158152602001610107565b61014c61016a366004610e9b565b610275565b61018261017d366004610d26565b6102b3565b604051610107959493929190610fc6565b6101a66101a1366004610d4f565b6103ac565b005b6100fd6101b6366004610d05565b610589565b6100fd60345481565b6101d76101d2366004610d26565b610636565b604051610107959493929190611017565b6101a66101f6366004610d26565b6107e4565b610224610209366004610ecd565b6000908152603660205260409020546001600160a01b031690565b6040516001600160a01b039091168152602001610107565b6101a661024a366004610d05565b610879565b6101a661025d366004610e03565b6109a6565b603354610224906001600160a01b031681565b6001600160a01b03831660009081526038602090815260408083208584529091528120600481015483906102a990426111cb565b1195945050505050565b6001600160a01b0380831660009081526037602090815260408083208584528252918290208054600182015460028301546003840180548751818802810188019098528088529388169792909216959094606094859490939183018282801561034557602002820191906000526020600020905b81546001600160a01b03168152600190910190602001808311610327575b505050505092508060040180548060200260200160405190810160405280929190818152602001828054801561039a57602002820191906000526020600020905b815481526020019060010190808311610386575b50505050509150509295509295909350565b6033546001600160a01b031633146103df5760405162461bcd60e51b81526004016103d690611069565b60405180910390fd5b6040805160c08101825260608082018190526080820152600060a08201526001600160a01b0389811682528816602080830191909152818301889052825186820280820183019094528681529192879187918291850190849080828437600092019190915250505050606082015260408051602080850282810182019093528482529091859185918291850190849080828437600092018290525060808601949094525050506001600160a01b03808c1682526037602090815260408084208d8552825292839020845181549084166001600160a01b031991821617825582860151600183018054919095169116179092559183015160028201556060830151805184936104f4926003850192910190610bef565b5060808201518051610510916004840191602090910190610c54565b5060a091909101516005909101805460ff19169115159190911790556040516001600160a01b038b16907fb772809416c60042796ed0cbe671b9e693fe08a0154495c976648dd0e73f7ae490610575908c908c908c908c908c908c908c908c906110f8565b60405180910390a250505050505050505050565b6033546000906001600160a01b031633146105b65760405162461bcd60e51b81526004016103d690611069565b603480549060006105c6836111e2565b90915550506001600160a01b03821660009081526035602052604081208054916105ef836111e2565b9091555050603454600090815260366020908152604080832080546001600160a01b0319166001600160a01b0387169081179091558352603590915290205490505b919050565b6001600160a01b03821660009081526038602090815260408083208484529091528120606091829182908290815b60038201548110156106bd5781600301818154811061069357634e487b7160e01b600052603260045260246000fd5b9060005260206000200154836106a991906111b3565b9250806106b5816111e2565b915050610664565b5060028101546106cd90836111b3565b81546040805160208084028201810190925282815292945083919083018282801561072157602002820191906000526020600020905b81546001600160a01b03168152600190910190602001808311610703575b505050505095508060010180548060200260200160405190810160405280929190818152602001828054801561077657602002820191906000526020600020905b815481526020019060010190808311610762575b5050505050945080600201549350806003018054806020026020016040519081016040528092919081815260200182805480156107d257602002820191906000526020600020905b8154815260200190600101908083116107be575b50505050509250509295509295909350565b6033546001600160a01b0316331461080e5760405162461bcd60e51b81526004016103d690611069565b6001600160a01b038216600081815260376020908152604080832085845282529182902060058101805460ff1916600117905591518481529192917f81325e2a6c442af9d36e4ee9697f38d5f4bf0837ade0f6c411c6a40af7c057ee910160405180910390a2505050565b600054610100900460ff16158080156108995750600054600160ff909116105b806108b35750303b1580156108b3575060005460ff166001145b6109165760405162461bcd60e51b815260206004820152602e60248201527f496e697469616c697a61626c653a20636f6e747261637420697320616c72656160448201526d191e481a5b9a5d1a585b1a5e995960921b60648201526084016103d6565b6000805460ff191660011790558015610939576000805461ff0019166101001790555b610941610b91565b603380546001600160a01b0319166001600160a01b03841617905580156109a2576000805461ff0019169055604051600181527f7f26b83ff96e1f2b6a682f133852f6798a09c465da95921460cefb38474024989060200160405180910390a15b5050565b6033546001600160a01b031633146109d05760405162461bcd60e51b81526004016103d690611069565b610a026040518060a0016040528060608152602001606081526020016000815260200160608152602001600081525090565b878780806020026020016040519081016040528093929190818152602001838360200280828437600092019190915250505090825250604080516020808802828101820190935287825290918891889182918501908490808284376000920191909152505050506020808301919091526040808301869052805184830281810184019092528481529185918591829190850190849080828437600092018290525060608601949094525050426080840152506001600160a01b038b1681526038602090815260408083208c84528252909120825180518493610ae8928492910190610bef565b506020828101518051610b019260018501920190610c54565b506040820151600282015560608201518051610b27916003840191602090910190610c54565b5060808201518160040155905050896001600160a01b03167fde92b0f67a20a147d9843f5ea77578f3e2194a26339138913d68867994bfef278a8a8a8a8a8a8a8a8a6080015160405161057599989796959493929190611154565b6001600160a01b03163b151590565b600054610100900460ff16610bb85760405162461bcd60e51b81526004016103d6906110ad565b610bc0610bc2565b565b600054610100900460ff16610be95760405162461bcd60e51b81526004016103d6906110ad565b60018055565b828054828255906000526020600020908101928215610c44579160200282015b82811115610c4457825182546001600160a01b0319166001600160a01b03909116178255602090920191600190910190610c0f565b50610c50929150610c8f565b5090565b828054828255906000526020600020908101928215610c44579160200282015b82811115610c44578251825591602001919060010190610c74565b5b80821115610c505760008155600101610c90565b80356001600160a01b038116811461063157600080fd5b60008083601f840112610ccc578182fd5b50813567ffffffffffffffff811115610ce3578182fd5b6020830191508360208260051b8501011115610cfe57600080fd5b9250929050565b600060208284031215610d16578081fd5b610d1f82610ca4565b9392505050565b60008060408385031215610d38578081fd5b610d4183610ca4565b946020939093013593505050565b600080600080600080600080600060e08a8c031215610d6c578485fd5b610d758a610ca4565b985060208a01359750610d8a60408b01610ca4565b9650610d9860608b01610ca4565b955060808a0135945060a08a013567ffffffffffffffff80821115610dbb578586fd5b610dc78d838e01610cbb565b909650945060c08c0135915080821115610ddf578384fd5b50610dec8c828d01610cbb565b915080935050809150509295985092959850929598565b600080600080600080600080600060c08a8c031215610e20578485fd5b610e298a610ca4565b985060208a0135975060408a013567ffffffffffffffff80821115610e4c578687fd5b610e588d838e01610cbb565b909950975060608c0135915080821115610e70578687fd5b610e7c8d838e01610cbb565b909750955060808c0135945060a08c0135915080821115610ddf578384fd5b600080600060608486031215610eaf578283fd5b610eb884610ca4565b95602085013595506040909401359392505050565b600060208284031215610ede578081fd5b5035919050565b81835260006020808501945082825b85811015610f20576001600160a01b03610f0d83610ca4565b1687529582019590820190600101610ef4565b509495945050505050565b6000815180845260208085019450808401835b83811015610f205781516001600160a01b031687529582019590820190600101610f3e565b81835260006001600160fb1b03831115610f7b578081fd5b8260051b80836020870137939093016020019283525090919050565b6000815180845260208085019450808401835b83811015610f2057815187529582019590820190600101610faa565b6001600160a01b038681168252851660208201526040810184905260a060608201819052600090610ff990830185610f2b565b828103608084015261100b8185610f97565b98975050505050505050565b60a08152600061102a60a0830188610f2b565b828103602084015261103c8188610f97565b905085604084015282810360608401526110568186610f97565b9150508260808301529695505050505050565b60208082526024908201527f437265646974557365723a2043616c6c6572206973206e6f7420746865206361604082015263363632b960e11b606082015260800190565b6020808252602b908201527f496e697469616c697a61626c653a20636f6e7472616374206973206e6f74206960408201526a6e697469616c697a696e6760a81b606082015260800190565b8881526001600160a01b038881166020830152871660408201526060810186905260c0608082018190526000906111329083018688610ee5565b82810360a0840152611145818587610f63565b9b9a5050505050505050505050565b89815260c06020820152600061116e60c083018a8c610ee5565b828103604084015261118181898b610f63565b9050866060840152828103608084015261119c818688610f63565b9150508260a08301529a9950505050505050505050565b600082198211156111c6576111c66111fd565b500190565b6000828210156111dd576111dd6111fd565b500390565b60006000198214156111f6576111f66111fd565b5060010190565b634e487b7160e01b600052601160045260246000fdfea26469706673582212202e1d0f83322be1a87a894a6adeffd41efbb8a4a318ea5b8affe0999ae8afe29c64736f6c63430008040033",
  "linkReferences": {},
  "deployedLinkReferences": {}
}